{
  "contractName": "ERC721Connector",
  "abi": [
    {
      "inputs": [
        {
          "internalType": "string",
          "name": "name",
          "type": "string"
        },
        {
          "internalType": "string",
          "name": "symbol",
          "type": "string"
        }
      ],
      "stateMutability": "nonpayable",
      "type": "constructor"
    },
    {
      "anonymous": false,
      "inputs": [
        {
          "indexed": true,
          "internalType": "address",
          "name": "from",
          "type": "address"
        },
        {
          "indexed": true,
          "internalType": "address",
          "name": "to",
          "type": "address"
        },
        {
          "indexed": true,
          "internalType": "uint256",
          "name": "tokenId",
          "type": "uint256"
        }
      ],
      "name": "Transfer",
      "type": "event"
    },
    {
      "inputs": [
        {
          "internalType": "address",
          "name": "_owner",
          "type": "address"
        }
      ],
      "name": "balanceOf",
      "outputs": [
        {
          "internalType": "uint256",
          "name": "",
          "type": "uint256"
        }
      ],
      "stateMutability": "view",
      "type": "function"
    },
    {
      "inputs": [],
      "name": "name",
      "outputs": [
        {
          "internalType": "string",
          "name": "",
          "type": "string"
        }
      ],
      "stateMutability": "view",
      "type": "function"
    },
    {
      "inputs": [
        {
          "internalType": "uint256",
          "name": "_tokenId",
          "type": "uint256"
        }
      ],
      "name": "ownerOf",
      "outputs": [
        {
          "internalType": "address",
          "name": "",
          "type": "address"
        }
      ],
      "stateMutability": "view",
      "type": "function"
    },
    {
      "inputs": [],
      "name": "symbol",
      "outputs": [
        {
          "internalType": "string",
          "name": "",
          "type": "string"
        }
      ],
      "stateMutability": "view",
      "type": "function"
    }
  ],
  "bytecode": "0x60806040523480156200001157600080fd5b506040516200094238038062000942833981810160405281019062000037919062000197565b818181600090805190602001906200005192919062000075565b5080600190805190602001906200006a92919062000075565b50505050506200033b565b8280546200008390620002a7565b90600052602060002090601f016020900481019282620000a75760008555620000f3565b82601f10620000c257805160ff1916838001178555620000f3565b82800160010185558215620000f3579182015b82811115620000f2578251825591602001919060010190620000d5565b5b50905062000102919062000106565b5090565b5b808211156200012157600081600090555060010162000107565b5090565b60006200013c62000136846200023e565b6200020a565b9050828152602081018484840111156200015557600080fd5b6200016284828562000271565b509392505050565b600082601f8301126200017c57600080fd5b81516200018e84826020860162000125565b91505092915050565b60008060408385031215620001ab57600080fd5b600083015167ffffffffffffffff811115620001c657600080fd5b620001d4858286016200016a565b925050602083015167ffffffffffffffff811115620001f257600080fd5b62000200858286016200016a565b9150509250929050565b6000604051905081810181811067ffffffffffffffff821117156200023457620002336200030c565b5b8060405250919050565b600067ffffffffffffffff8211156200025c576200025b6200030c565b5b601f19601f8301169050602081019050919050565b60005b838110156200029157808201518184015260208101905062000274565b83811115620002a1576000848401525b50505050565b60006002820490506001821680620002c057607f821691505b60208210811415620002d757620002d6620002dd565b5b50919050565b7f4e487b7100000000000000000000000000000000000000000000000000000000600052602260045260246000fd5b7f4e487b7100000000000000000000000000000000000000000000000000000000600052604160045260246000fd5b6105f7806200034b6000396000f3fe608060405234801561001057600080fd5b506004361061004c5760003560e01c806306fdde03146100515780636352211e1461006f57806370a082311461009f57806395d89b41146100cf575b600080fd5b6100596100ed565b6040516100669190610439565b60405180910390f35b6100896004803603810190610084919061035e565b61017f565b604051610096919061041e565b60405180910390f35b6100b960048036038101906100b49190610335565b6101c1565b6040516100c6919061047b565b60405180910390f35b6100d7610279565b6040516100e49190610439565b60405180910390f35b6060600080546100fc90610521565b80601f016020809104026020016040519081016040528092919081815260200182805461012890610521565b80156101755780601f1061014a57610100808354040283529160200191610175565b820191906000526020600020905b81548152906001019060200180831161015857829003601f168201915b5050505050905090565b6000806002600084815260200190815260200160002060009054906101000a900473ffffffffffffffffffffffffffffffffffffffff16905080915050919050565b60008073ffffffffffffffffffffffffffffffffffffffff168273ffffffffffffffffffffffffffffffffffffffff161415610232576040517f08c379a00000000000000000000000000000000000000000000000000000000081526004016102299061045b565b60405180910390fd5b600360008373ffffffffffffffffffffffffffffffffffffffff1673ffffffffffffffffffffffffffffffffffffffff168152602001908152602001600020549050919050565b60606001805461028890610521565b80601f01602080910402602001604051908101604052809291908181526020018280546102b490610521565b80156103015780601f106102d657610100808354040283529160200191610301565b820191906000526020600020905b8154815290600101906020018083116102e457829003601f168201915b5050505050905090565b60008135905061031a81610593565b92915050565b60008135905061032f816105aa565b92915050565b60006020828403121561034757600080fd5b60006103558482850161030b565b91505092915050565b60006020828403121561037057600080fd5b600061037e84828501610320565b91505092915050565b610390816104b2565b82525050565b60006103a182610496565b6103ab81856104a1565b93506103bb8185602086016104ee565b6103c481610582565b840191505092915050565b60006103dc601a836104a1565b91507f6f776e65722071757269657920666f72206e6f6e2d65786973740000000000006000830152602082019050919050565b610418816104e4565b82525050565b60006020820190506104336000830184610387565b92915050565b600060208201905081810360008301526104538184610396565b905092915050565b60006020820190508181036000830152610474816103cf565b9050919050565b6000602082019050610490600083018461040f565b92915050565b600081519050919050565b600082825260208201905092915050565b60006104bd826104c4565b9050919050565b600073ffffffffffffffffffffffffffffffffffffffff82169050919050565b6000819050919050565b60005b8381101561050c5780820151818401526020810190506104f1565b8381111561051b576000848401525b50505050565b6000600282049050600182168061053957607f821691505b6020821081141561054d5761054c610553565b5b50919050565b7f4e487b7100000000000000000000000000000000000000000000000000000000600052602260045260246000fd5b6000601f19601f8301169050919050565b61059c816104b2565b81146105a757600080fd5b50565b6105b3816104e4565b81146105be57600080fd5b5056fea2646970667358221220b291614849441141f21dbedc1928faf3c6c57434e3a1641649e52c90f5a54c6664736f6c63430008000033",
  "immutableReferences": {},
  "source": "pragma solidity ^0.8.0;\n\nimport './ERC721Metadata.sol';\nimport './ERC721.sol';\n\ncontract ERC721Connector is ERC721Metadata,ERC721{\n\nconstructor(string memory name,string memory symbol)ERC721Metadata(name , symbol){\n\n\n}\n}\n\n\n\n",
  "sourcePath": "/home/superstar/Documents/dev/BLOCKCHAIN nFT COURSE/nft-marketplace/src/contracts/ERC721Connector.sol",
  "compiler": {
    "name": "solc",
    "version": "0.8.0+commit.c7dfd78e.Emscripten.clang"
  },
  "schemaVersion": "3.4.6",
  "updatedAt": "2022-03-22T16:02:52.119Z",
  "devdoc": {
    "kind": "dev",
    "methods": {},
    "version": 1
  },
  "userdoc": {
    "kind": "user",
    "methods": {},
    "version": 1
  }
}