{
  "contractName": "KryptoBird",
  "abi": [
    {
      "inputs": [],
      "stateMutability": "nonpayable",
      "type": "constructor"
    },
    {
      "anonymous": false,
      "inputs": [
        {
          "indexed": true,
          "internalType": "address",
          "name": "from",
          "type": "address"
        },
        {
          "indexed": true,
          "internalType": "address",
          "name": "to",
          "type": "address"
        },
        {
          "indexed": true,
          "internalType": "uint256",
          "name": "tokenId",
          "type": "uint256"
        }
      ],
      "name": "Transfer",
      "type": "event"
    },
    {
      "inputs": [
        {
          "internalType": "uint256",
          "name": "",
          "type": "uint256"
        }
      ],
      "name": "KryptoBirdz",
      "outputs": [
        {
          "internalType": "string",
          "name": "",
          "type": "string"
        }
      ],
      "stateMutability": "view",
      "type": "function"
    },
    {
      "inputs": [
        {
          "internalType": "address",
          "name": "_owner",
          "type": "address"
        }
      ],
      "name": "balanceOf",
      "outputs": [
        {
          "internalType": "uint256",
          "name": "",
          "type": "uint256"
        }
      ],
      "stateMutability": "view",
      "type": "function"
    },
    {
      "inputs": [],
      "name": "name",
      "outputs": [
        {
          "internalType": "string",
          "name": "",
          "type": "string"
        }
      ],
      "stateMutability": "view",
      "type": "function"
    },
    {
      "inputs": [
        {
          "internalType": "uint256",
          "name": "_tokenId",
          "type": "uint256"
        }
      ],
      "name": "ownerOf",
      "outputs": [
        {
          "internalType": "address",
          "name": "",
          "type": "address"
        }
      ],
      "stateMutability": "view",
      "type": "function"
    },
    {
      "inputs": [],
      "name": "symbol",
      "outputs": [
        {
          "internalType": "string",
          "name": "",
          "type": "string"
        }
      ],
      "stateMutability": "view",
      "type": "function"
    },
    {
      "inputs": [
        {
          "internalType": "string",
          "name": "_kryptoBird",
          "type": "string"
        }
      ],
      "name": "mint",
      "outputs": [],
      "stateMutability": "nonpayable",
      "type": "function"
    }
  ],
  "bytecode": "0x60806040523480156200001157600080fd5b506040518060400160405280600a81526020017f4b727970746f42697264000000000000000000000000000000000000000000008152506040518060400160405280600681526020017f4b424952445a00000000000000000000000000000000000000000000000000008152508181816000908051906020019062000098929190620000bc565b508060019080519060200190620000b1929190620000bc565b5050505050620001d1565b828054620000ca906200016c565b90600052602060002090601f016020900481019282620000ee57600085556200013a565b82601f106200010957805160ff19168380011785556200013a565b828001600101855582156200013a579182015b82811115620001395782518255916020019190600101906200011c565b5b5090506200014991906200014d565b5090565b5b80821115620001685760008160009055506001016200014e565b5090565b600060028204905060018216806200018557607f821691505b602082108114156200019c576200019b620001a2565b5b50919050565b7f4e487b7100000000000000000000000000000000000000000000000000000000600052602260045260246000fd5b610d5e80620001e16000396000f3fe608060405234801561001057600080fd5b50600436106100625760003560e01c806306fdde03146100675780636352211e1461008557806370a08231146100b557806395d89b41146100e5578063a3a1ff5814610103578063d85d3d2714610133575b600080fd5b61006f61014f565b60405161007c91906109fd565b60405180910390f35b61009f600480360381019061009a9190610834565b6101e1565b6040516100ac91906109e2565b60405180910390f35b6100cf60048036038101906100ca91906107ca565b610223565b6040516100dc9190610a7f565b60405180910390f35b6100ed6102db565b6040516100fa91906109fd565b60405180910390f35b61011d60048036038101906101189190610834565b61036d565b60405161012a91906109fd565b60405180910390f35b61014d600480360381019061014891906107f3565b610419565b005b60606000805461015e90610c2a565b80601f016020809104026020016040519081016040528092919081815260200182805461018a90610c2a565b80156101d75780601f106101ac576101008083540402835291602001916101d7565b820191906000526020600020905b8154815290600101906020018083116101ba57829003601f168201915b5050505050905090565b6000806002600084815260200190815260200160002060009054906101000a900473ffffffffffffffffffffffffffffffffffffffff16905080915050919050565b60008073ffffffffffffffffffffffffffffffffffffffff168273ffffffffffffffffffffffffffffffffffffffff161415610294576040517f08c379a000000000000000000000000000000000000000000000000000000000815260040161028b90610a5f565b60405180910390fd5b600360008373ffffffffffffffffffffffffffffffffffffffff1673ffffffffffffffffffffffffffffffffffffffff168152602001908152602001600020549050919050565b6060600180546102ea90610c2a565b80601f016020809104026020016040519081016040528092919081815260200182805461031690610c2a565b80156103635780601f1061033857610100808354040283529160200191610363565b820191906000526020600020905b81548152906001019060200180831161034657829003601f168201915b5050505050905090565b6004818154811061037d57600080fd5b90600052602060002001600091509050805461039890610c2a565b80601f01602080910402602001604051908101604052809291908181526020018280546103c490610c2a565b80156104115780601f106103e657610100808354040283529160200191610411565b820191906000526020600020905b8154815290600101906020018083116103f457829003601f168201915b505050505081565b60058160405161042991906109cb565b908152602001604051809103902060009054906101000a900460ff1615610485576040517f08c379a000000000000000000000000000000000000000000000000000000000815260040161047c90610a3f565b60405180910390fd5b6004819080600181540180825580915050600190039060005260206000200160009091909190915090805190602001906104c0929190610695565b50600060016004805490506104d59190610b78565b90506104e1338261051c565b60016005836040516104f391906109cb565b908152602001604051809103902060006101000a81548160ff0219169083151502179055505050565b600073ffffffffffffffffffffffffffffffffffffffff168273ffffffffffffffffffffffffffffffffffffffff16141561058c576040517f08c379a000000000000000000000000000000000000000000000000000000000815260040161058390610a1f565b60405180910390fd5b816002600083815260200190815260200160002060006101000a81548173ffffffffffffffffffffffffffffffffffffffff021916908373ffffffffffffffffffffffffffffffffffffffff1602179055506001600360008473ffffffffffffffffffffffffffffffffffffffff1673ffffffffffffffffffffffffffffffffffffffff168152602001908152602001600020600082825461062e9190610b22565b92505081905550808273ffffffffffffffffffffffffffffffffffffffff16600073ffffffffffffffffffffffffffffffffffffffff167fddf252ad1be2c89b69c2b068fc378daa952ba7f163c4a11628f55a4df523b3ef60405160405180910390a45050565b8280546106a190610c2a565b90600052602060002090601f0160209004810192826106c3576000855561070a565b82601f106106dc57805160ff191683800117855561070a565b8280016001018555821561070a579182015b828111156107095782518255916020019190600101906106ee565b5b509050610717919061071b565b5090565b5b8082111561073457600081600090555060010161071c565b5090565b600061074b61074684610acb565b610a9a565b90508281526020810184848401111561076357600080fd5b61076e848285610be8565b509392505050565b60008135905061078581610cfa565b92915050565b600082601f83011261079c57600080fd5b81356107ac848260208601610738565b91505092915050565b6000813590506107c481610d11565b92915050565b6000602082840312156107dc57600080fd5b60006107ea84828501610776565b91505092915050565b60006020828403121561080557600080fd5b600082013567ffffffffffffffff81111561081f57600080fd5b61082b8482850161078b565b91505092915050565b60006020828403121561084657600080fd5b6000610854848285016107b5565b91505092915050565b61086681610bac565b82525050565b600061087782610afb565b6108818185610b06565b9350610891818560208601610bf7565b61089a81610ce9565b840191505092915050565b60006108b082610afb565b6108ba8185610b17565b93506108ca818560208601610bf7565b80840191505092915050565b60006108e3602283610b06565b91507f455243373231206d696e74696e6720746f20746865207a65726f20616464726560008301527f73730000000000000000000000000000000000000000000000000000000000006020830152604082019050919050565b6000610949600f83610b06565b91507f4552524f52202d2070726573656e7400000000000000000000000000000000006000830152602082019050919050565b6000610989601a83610b06565b91507f6f776e65722071757269657920666f72206e6f6e2d65786973740000000000006000830152602082019050919050565b6109c581610bde565b82525050565b60006109d782846108a5565b915081905092915050565b60006020820190506109f7600083018461085d565b92915050565b60006020820190508181036000830152610a17818461086c565b905092915050565b60006020820190508181036000830152610a38816108d6565b9050919050565b60006020820190508181036000830152610a588161093c565b9050919050565b60006020820190508181036000830152610a788161097c565b9050919050565b6000602082019050610a9460008301846109bc565b92915050565b6000604051905081810181811067ffffffffffffffff82111715610ac157610ac0610cba565b5b8060405250919050565b600067ffffffffffffffff821115610ae657610ae5610cba565b5b601f19601f8301169050602081019050919050565b600081519050919050565b600082825260208201905092915050565b600081905092915050565b6000610b2d82610bde565b9150610b3883610bde565b9250827fffffffffffffffffffffffffffffffffffffffffffffffffffffffffffffffff03821115610b6d57610b6c610c5c565b5b828201905092915050565b6000610b8382610bde565b9150610b8e83610bde565b925082821015610ba157610ba0610c5c565b5b828203905092915050565b6000610bb782610bbe565b9050919050565b600073ffffffffffffffffffffffffffffffffffffffff82169050919050565b6000819050919050565b82818337600083830152505050565b60005b83811015610c15578082015181840152602081019050610bfa565b83811115610c24576000848401525b50505050565b60006002820490506001821680610c4257607f821691505b60208210811415610c5657610c55610c8b565b5b50919050565b7f4e487b7100000000000000000000000000000000000000000000000000000000600052601160045260246000fd5b7f4e487b7100000000000000000000000000000000000000000000000000000000600052602260045260246000fd5b7f4e487b7100000000000000000000000000000000000000000000000000000000600052604160045260246000fd5b6000601f19601f8301169050919050565b610d0381610bac565b8114610d0e57600080fd5b50565b610d1a81610bde565b8114610d2557600080fd5b5056fea264697066735822122099e00aff48abf0f502b53d2d84654c5ad2a3cf56421087b408f335d5b83dc3b664736f6c63430008000033",
  "immutableReferences": {},
  "source": "pragma solidity ^0.8.0;\n\nimport \"./ERC721Connector.sol\";\n\n// contract Kryptobird{\n//     string public name;\n//     string public symbol;\n\n//     constructor () {\n//         name ='Kryptobird';\n//         symbol = 'KBIRDZ';\n//     }\n// }\n\ncontract KryptoBird is ERC721Connector {\n    string[] public KryptoBirdz;\n\n    mapping(string => bool) _kryptoBirdzExists;\n\n    function mint(string memory _kryptoBird) public {\n        require(!_kryptoBirdzExists[_kryptoBird],'ERROR - present');\n        KryptoBirdz.push(_kryptoBird);\n        uint256 _id = KryptoBirdz.length - 1;\n\n        _mint(msg.sender,_id);\n\n        _kryptoBirdzExists[_kryptoBird] = true;\n    }\n\n    constructor() ERC721Connector(\"KryptoBird\", \"KBIRDZ\") {}\n}\n",
  "sourcePath": "/home/superstar/Documents/dev/BLOCKCHAIN nFT COURSE/nft-marketplace/src/contracts/KrpytoBirdz.sol",
  "compiler": {
    "name": "solc",
    "version": "0.8.0+commit.c7dfd78e.Emscripten.clang"
  },
  "schemaVersion": "3.4.6",
  "updatedAt": "2022-03-22T16:22:28.448Z",
  "devdoc": {
    "kind": "dev",
    "methods": {},
    "version": 1
  },
  "userdoc": {
    "kind": "user",
    "methods": {},
    "version": 1
  }
}